{
  "_format": "hh-sol-artifact-1",
  "contractName": "SalamunToken",
  "sourceName": "contracts/SalamunToken.sol",
  "abi": [
    {
      "inputs": [],
      "stateMutability": "nonpayable",
      "type": "constructor"
    },
    {
      "anonymous": false,
      "inputs": [
        {
          "indexed": true,
          "internalType": "address",
          "name": "owner",
          "type": "address"
        },
        {
          "indexed": true,
          "internalType": "address",
          "name": "spender",
          "type": "address"
        },
        {
          "indexed": false,
          "internalType": "uint256",
          "name": "value",
          "type": "uint256"
        }
      ],
      "name": "Approval",
      "type": "event"
    },
    {
      "anonymous": false,
      "inputs": [
        {
          "indexed": true,
          "internalType": "address",
          "name": "previousOwner",
          "type": "address"
        },
        {
          "indexed": true,
          "internalType": "address",
          "name": "newOwner",
          "type": "address"
        }
      ],
      "name": "OwnershipTransferred",
      "type": "event"
    },
    {
      "anonymous": false,
      "inputs": [
        {
          "indexed": true,
          "internalType": "address",
          "name": "from",
          "type": "address"
        },
        {
          "indexed": true,
          "internalType": "address",
          "name": "to",
          "type": "address"
        },
        {
          "indexed": false,
          "internalType": "uint256",
          "name": "value",
          "type": "uint256"
        }
      ],
      "name": "Transfer",
      "type": "event"
    },
    {
      "inputs": [
        {
          "internalType": "address",
          "name": "owner",
          "type": "address"
        },
        {
          "internalType": "address",
          "name": "spender",
          "type": "address"
        }
      ],
      "name": "allowance",
      "outputs": [
        {
          "internalType": "uint256",
          "name": "",
          "type": "uint256"
        }
      ],
      "stateMutability": "view",
      "type": "function"
    },
    {
      "inputs": [
        {
          "internalType": "address",
          "name": "spender",
          "type": "address"
        },
        {
          "internalType": "uint256",
          "name": "amount",
          "type": "uint256"
        }
      ],
      "name": "approve",
      "outputs": [
        {
          "internalType": "bool",
          "name": "",
          "type": "bool"
        }
      ],
      "stateMutability": "nonpayable",
      "type": "function"
    },
    {
      "inputs": [
        {
          "internalType": "address",
          "name": "account",
          "type": "address"
        }
      ],
      "name": "balanceOf",
      "outputs": [
        {
          "internalType": "uint256",
          "name": "",
          "type": "uint256"
        }
      ],
      "stateMutability": "view",
      "type": "function"
    },
    {
      "inputs": [],
      "name": "decimals",
      "outputs": [
        {
          "internalType": "uint8",
          "name": "",
          "type": "uint8"
        }
      ],
      "stateMutability": "view",
      "type": "function"
    },
    {
      "inputs": [
        {
          "internalType": "address",
          "name": "spender",
          "type": "address"
        },
        {
          "internalType": "uint256",
          "name": "subtractedValue",
          "type": "uint256"
        }
      ],
      "name": "decreaseAllowance",
      "outputs": [
        {
          "internalType": "bool",
          "name": "",
          "type": "bool"
        }
      ],
      "stateMutability": "nonpayable",
      "type": "function"
    },
    {
      "inputs": [
        {
          "internalType": "address",
          "name": "spender",
          "type": "address"
        },
        {
          "internalType": "uint256",
          "name": "addedValue",
          "type": "uint256"
        }
      ],
      "name": "increaseAllowance",
      "outputs": [
        {
          "internalType": "bool",
          "name": "",
          "type": "bool"
        }
      ],
      "stateMutability": "nonpayable",
      "type": "function"
    },
    {
      "inputs": [
        {
          "internalType": "address",
          "name": "to_",
          "type": "address"
        },
        {
          "internalType": "uint256",
          "name": "amount_",
          "type": "uint256"
        }
      ],
      "name": "mint",
      "outputs": [],
      "stateMutability": "nonpayable",
      "type": "function"
    },
    {
      "inputs": [],
      "name": "name",
      "outputs": [
        {
          "internalType": "string",
          "name": "",
          "type": "string"
        }
      ],
      "stateMutability": "view",
      "type": "function"
    },
    {
      "inputs": [],
      "name": "owner",
      "outputs": [
        {
          "internalType": "address",
          "name": "",
          "type": "address"
        }
      ],
      "stateMutability": "view",
      "type": "function"
    },
    {
      "inputs": [],
      "name": "renounceOwnership",
      "outputs": [],
      "stateMutability": "nonpayable",
      "type": "function"
    },
    {
      "inputs": [
        {
          "internalType": "address",
          "name": "owner_",
          "type": "address"
        }
      ],
      "name": "setOwner",
      "outputs": [],
      "stateMutability": "nonpayable",
      "type": "function"
    },
    {
      "inputs": [],
      "name": "symbol",
      "outputs": [
        {
          "internalType": "string",
          "name": "",
          "type": "string"
        }
      ],
      "stateMutability": "view",
      "type": "function"
    },
    {
      "inputs": [],
      "name": "totalSupply",
      "outputs": [
        {
          "internalType": "uint256",
          "name": "",
          "type": "uint256"
        }
      ],
      "stateMutability": "view",
      "type": "function"
    },
    {
      "inputs": [
        {
          "internalType": "address",
          "name": "to",
          "type": "address"
        },
        {
          "internalType": "uint256",
          "name": "amount",
          "type": "uint256"
        }
      ],
      "name": "transfer",
      "outputs": [
        {
          "internalType": "bool",
          "name": "",
          "type": "bool"
        }
      ],
      "stateMutability": "nonpayable",
      "type": "function"
    },
    {
      "inputs": [
        {
          "internalType": "address",
          "name": "from",
          "type": "address"
        },
        {
          "internalType": "address",
          "name": "to",
          "type": "address"
        },
        {
          "internalType": "uint256",
          "name": "amount",
          "type": "uint256"
        }
      ],
      "name": "transferFrom",
      "outputs": [
        {
          "internalType": "bool",
          "name": "",
          "type": "bool"
        }
      ],
      "stateMutability": "nonpayable",
      "type": "function"
    },
    {
      "inputs": [
        {
          "internalType": "address",
          "name": "newOwner",
          "type": "address"
        }
      ],
      "name": "transferOwnership",
      "outputs": [],
      "stateMutability": "nonpayable",
      "type": "function"
    }
  ],
  "bytecode": "0x60806040523480156200001157600080fd5b506040518060400160405280600d81526020017f53414c414d554e20544f4b454e000000000000000000000000000000000000008152506040518060400160405280600481526020017f53414c5400000000000000000000000000000000000000000000000000000000815250816003908051906020019062000096929190620001a6565b508060049080519060200190620000af929190620001a6565b505050620000d2620000c6620000d860201b60201c565b620000e060201b60201c565b620002bb565b600033905090565b6000600560009054906101000a900473ffffffffffffffffffffffffffffffffffffffff16905081600560006101000a81548173ffffffffffffffffffffffffffffffffffffffff021916908373ffffffffffffffffffffffffffffffffffffffff1602179055508173ffffffffffffffffffffffffffffffffffffffff168173ffffffffffffffffffffffffffffffffffffffff167f8be0079c531659141344cd1fd0a4f28419497f9722a3daafe3b4186f6b6457e060405160405180910390a35050565b828054620001b49062000256565b90600052602060002090601f016020900481019282620001d8576000855562000224565b82601f10620001f357805160ff191683800117855562000224565b8280016001018555821562000224579182015b828111156200022357825182559160200191906001019062000206565b5b50905062000233919062000237565b5090565b5b808211156200025257600081600090555060010162000238565b5090565b600060028204905060018216806200026f57607f821691505b602082108114156200028657620002856200028c565b5b50919050565b7f4e487b7100000000000000000000000000000000000000000000000000000000600052602260045260246000fd5b611a7a80620002cb6000396000f3fe608060405234801561001057600080fd5b50600436106101005760003560e01c806370a0823111610097578063a457c2d711610066578063a457c2d71461029d578063a9059cbb146102cd578063dd62ed3e146102fd578063f2fde38b1461032d57610100565b806370a0823114610227578063715018a6146102575780638da5cb5b1461026157806395d89b411461027f57610100565b806323b872dd116100d357806323b872dd1461018d578063313ce567146101bd57806339509351146101db57806340c10f191461020b57610100565b806306fdde0314610105578063095ea7b31461012357806313af40351461015357806318160ddd1461016f575b600080fd5b61010d610349565b60405161011a91906113d0565b60405180910390f35b61013d60048036038101906101389190611168565b6103db565b60405161014a91906113b5565b60405180910390f35b61016d600480360381019061016891906110b4565b6103fe565b005b6101776104be565b6040516101849190611552565b60405180910390f35b6101a760048036038101906101a29190611119565b6104c8565b6040516101b491906113b5565b60405180910390f35b6101c56104f7565b6040516101d2919061156d565b60405180910390f35b6101f560048036038101906101f09190611168565b610500565b60405161020291906113b5565b60405180910390f35b61022560048036038101906102209190611168565b610537565b005b610241600480360381019061023c91906110b4565b6105d5565b60405161024e9190611552565b60405180910390f35b61025f61061d565b005b6102696106a5565b604051610276919061139a565b60405180910390f35b6102876106cf565b60405161029491906113d0565b60405180910390f35b6102b760048036038101906102b29190611168565b610761565b6040516102c491906113b5565b60405180910390f35b6102e760048036038101906102e29190611168565b6107d8565b6040516102f491906113b5565b60405180910390f35b610317600480360381019061031291906110dd565b6107fb565b6040516103249190611552565b60405180910390f35b610347600480360381019061034291906110b4565b610882565b005b60606003805461035890611682565b80601f016020809104026020016040519081016040528092919081815260200182805461038490611682565b80156103d15780601f106103a6576101008083540402835291602001916103d1565b820191906000526020600020905b8154815290600101906020018083116103b457829003601f168201915b5050505050905090565b6000806103e661097a565b90506103f3818585610982565b600191505092915050565b61040661097a565b73ffffffffffffffffffffffffffffffffffffffff166104246106a5565b73ffffffffffffffffffffffffffffffffffffffff161461047a576040517f08c379a0000000000000000000000000000000000000000000000000000000008152600401610471906114b2565b60405180910390fd5b80600660006101000a81548173ffffffffffffffffffffffffffffffffffffffff021916908373ffffffffffffffffffffffffffffffffffffffff16021790555050565b6000600254905090565b6000806104d361097a565b90506104e0858285610b4d565b6104eb858585610bd9565b60019150509392505050565b60006012905090565b60008061050b61097a565b905061052c81858561051d85896107fb565b61052791906115a4565b610982565b600191505092915050565b3373ffffffffffffffffffffffffffffffffffffffff16600660009054906101000a900473ffffffffffffffffffffffffffffffffffffffff1673ffffffffffffffffffffffffffffffffffffffff16146105c7576040517f08c379a00000000000000000000000000000000000000000000000000000000081526004016105be90611412565b60405180910390fd5b6105d18282610e5a565b5050565b60008060008373ffffffffffffffffffffffffffffffffffffffff1673ffffffffffffffffffffffffffffffffffffffff168152602001908152602001600020549050919050565b61062561097a565b73ffffffffffffffffffffffffffffffffffffffff166106436106a5565b73ffffffffffffffffffffffffffffffffffffffff1614610699576040517f08c379a0000000000000000000000000000000000000000000000000000000008152600401610690906114b2565b60405180910390fd5b6106a36000610fba565b565b6000600560009054906101000a900473ffffffffffffffffffffffffffffffffffffffff16905090565b6060600480546106de90611682565b80601f016020809104026020016040519081016040528092919081815260200182805461070a90611682565b80156107575780601f1061072c57610100808354040283529160200191610757565b820191906000526020600020905b81548152906001019060200180831161073a57829003601f168201915b5050505050905090565b60008061076c61097a565b9050600061077a82866107fb565b9050838110156107bf576040517f08c379a00000000000000000000000000000000000000000000000000000000081526004016107b690611512565b60405180910390fd5b6107cc8286868403610982565b60019250505092915050565b6000806107e361097a565b90506107f0818585610bd9565b600191505092915050565b6000600160008473ffffffffffffffffffffffffffffffffffffffff1673ffffffffffffffffffffffffffffffffffffffff16815260200190815260200160002060008373ffffffffffffffffffffffffffffffffffffffff1673ffffffffffffffffffffffffffffffffffffffff16815260200190815260200160002054905092915050565b61088a61097a565b73ffffffffffffffffffffffffffffffffffffffff166108a86106a5565b73ffffffffffffffffffffffffffffffffffffffff16146108fe576040517f08c379a00000000000000000000000000000000000000000000000000000000081526004016108f5906114b2565b60405180910390fd5b600073ffffffffffffffffffffffffffffffffffffffff168173ffffffffffffffffffffffffffffffffffffffff16141561096e576040517f08c379a000000000000000000000000000000000000000000000000000000000815260040161096590611432565b60405180910390fd5b61097781610fba565b50565b600033905090565b600073ffffffffffffffffffffffffffffffffffffffff168373ffffffffffffffffffffffffffffffffffffffff1614156109f2576040517f08c379a00000000000000000000000000000000000000000000000000000000081526004016109e9906114f2565b60405180910390fd5b600073ffffffffffffffffffffffffffffffffffffffff168273ffffffffffffffffffffffffffffffffffffffff161415610a62576040517f08c379a0000000000000000000000000000000000000000000000000000000008152600401610a5990611452565b60405180910390fd5b80600160008573ffffffffffffffffffffffffffffffffffffffff1673ffffffffffffffffffffffffffffffffffffffff16815260200190815260200160002060008473ffffffffffffffffffffffffffffffffffffffff1673ffffffffffffffffffffffffffffffffffffffff168152602001908152602001600020819055508173ffffffffffffffffffffffffffffffffffffffff168373ffffffffffffffffffffffffffffffffffffffff167f8c5be1e5ebec7d5bd14f71427d1e84f3dd0314c0f7b2291e5b200ac8c7c3b92583604051610b409190611552565b60405180910390a3505050565b6000610b5984846107fb565b90507fffffffffffffffffffffffffffffffffffffffffffffffffffffffffffffffff8114610bd35781811015610bc5576040517f08c379a0000000000000000000000000000000000000000000000000000000008152600401610bbc90611472565b60405180910390fd5b610bd28484848403610982565b5b50505050565b600073ffffffffffffffffffffffffffffffffffffffff168373ffffffffffffffffffffffffffffffffffffffff161415610c49576040517f08c379a0000000000000000000000000000000000000000000000000000000008152600401610c40906114d2565b60405180910390fd5b600073ffffffffffffffffffffffffffffffffffffffff168273ffffffffffffffffffffffffffffffffffffffff161415610cb9576040517f08c379a0000000000000000000000000000000000000000000000000000000008152600401610cb0906113f2565b60405180910390fd5b610cc4838383611080565b60008060008573ffffffffffffffffffffffffffffffffffffffff1673ffffffffffffffffffffffffffffffffffffffff16815260200190815260200160002054905081811015610d4a576040517f08c379a0000000000000000000000000000000000000000000000000000000008152600401610d4190611492565b60405180910390fd5b8181036000808673ffffffffffffffffffffffffffffffffffffffff1673ffffffffffffffffffffffffffffffffffffffff16815260200190815260200160002081905550816000808573ffffffffffffffffffffffffffffffffffffffff1673ffffffffffffffffffffffffffffffffffffffff1681526020019081526020016000206000828254610ddd91906115a4565b925050819055508273ffffffffffffffffffffffffffffffffffffffff168473ffffffffffffffffffffffffffffffffffffffff167fddf252ad1be2c89b69c2b068fc378daa952ba7f163c4a11628f55a4df523b3ef84604051610e419190611552565b60405180910390a3610e54848484611085565b50505050565b600073ffffffffffffffffffffffffffffffffffffffff168273ffffffffffffffffffffffffffffffffffffffff161415610eca576040517f08c379a0000000000000000000000000000000000000000000000000000000008152600401610ec190611532565b60405180910390fd5b610ed660008383611080565b8060026000828254610ee891906115a4565b92505081905550806000808473ffffffffffffffffffffffffffffffffffffffff1673ffffffffffffffffffffffffffffffffffffffff1681526020019081526020016000206000828254610f3d91906115a4565b925050819055508173ffffffffffffffffffffffffffffffffffffffff16600073ffffffffffffffffffffffffffffffffffffffff167fddf252ad1be2c89b69c2b068fc378daa952ba7f163c4a11628f55a4df523b3ef83604051610fa29190611552565b60405180910390a3610fb660008383611085565b5050565b6000600560009054906101000a900473ffffffffffffffffffffffffffffffffffffffff16905081600560006101000a81548173ffffffffffffffffffffffffffffffffffffffff021916908373ffffffffffffffffffffffffffffffffffffffff1602179055508173ffffffffffffffffffffffffffffffffffffffff168173ffffffffffffffffffffffffffffffffffffffff167f8be0079c531659141344cd1fd0a4f28419497f9722a3daafe3b4186f6b6457e060405160405180910390a35050565b505050565b505050565b60008135905061109981611a16565b92915050565b6000813590506110ae81611a2d565b92915050565b6000602082840312156110c657600080fd5b60006110d48482850161108a565b91505092915050565b600080604083850312156110f057600080fd5b60006110fe8582860161108a565b925050602061110f8582860161108a565b9150509250929050565b60008060006060848603121561112e57600080fd5b600061113c8682870161108a565b935050602061114d8682870161108a565b925050604061115e8682870161109f565b9150509250925092565b6000806040838503121561117b57600080fd5b60006111898582860161108a565b925050602061119a8582860161109f565b9150509250929050565b6111ad816115fa565b82525050565b6111bc8161160c565b82525050565b60006111cd82611588565b6111d78185611593565b93506111e781856020860161164f565b6111f081611712565b840191505092915050565b6000611208602383611593565b915061121382611723565b604082019050919050565b600061122b602283611593565b915061123682611772565b604082019050919050565b600061124e602683611593565b9150611259826117c1565b604082019050919050565b6000611271602283611593565b915061127c82611810565b604082019050919050565b6000611294601d83611593565b915061129f8261185f565b602082019050919050565b60006112b7602683611593565b91506112c282611888565b604082019050919050565b60006112da602083611593565b91506112e5826118d7565b602082019050919050565b60006112fd602583611593565b915061130882611900565b604082019050919050565b6000611320602483611593565b915061132b8261194f565b604082019050919050565b6000611343602583611593565b915061134e8261199e565b604082019050919050565b6000611366601f83611593565b9150611371826119ed565b602082019050919050565b61138581611638565b82525050565b61139481611642565b82525050565b60006020820190506113af60008301846111a4565b92915050565b60006020820190506113ca60008301846111b3565b92915050565b600060208201905081810360008301526113ea81846111c2565b905092915050565b6000602082019050818103600083015261140b816111fb565b9050919050565b6000602082019050818103600083015261142b8161121e565b9050919050565b6000602082019050818103600083015261144b81611241565b9050919050565b6000602082019050818103600083015261146b81611264565b9050919050565b6000602082019050818103600083015261148b81611287565b9050919050565b600060208201905081810360008301526114ab816112aa565b9050919050565b600060208201905081810360008301526114cb816112cd565b9050919050565b600060208201905081810360008301526114eb816112f0565b9050919050565b6000602082019050818103600083015261150b81611313565b9050919050565b6000602082019050818103600083015261152b81611336565b9050919050565b6000602082019050818103600083015261154b81611359565b9050919050565b6000602082019050611567600083018461137c565b92915050565b6000602082019050611582600083018461138b565b92915050565b600081519050919050565b600082825260208201905092915050565b60006115af82611638565b91506115ba83611638565b9250827fffffffffffffffffffffffffffffffffffffffffffffffffffffffffffffffff038211156115ef576115ee6116b4565b5b828201905092915050565b600061160582611618565b9050919050565b60008115159050919050565b600073ffffffffffffffffffffffffffffffffffffffff82169050919050565b6000819050919050565b600060ff82169050919050565b60005b8381101561166d578082015181840152602081019050611652565b8381111561167c576000848401525b50505050565b6000600282049050600182168061169a57607f821691505b602082108114156116ae576116ad6116e3565b5b50919050565b7f4e487b7100000000000000000000000000000000000000000000000000000000600052601160045260246000fd5b7f4e487b7100000000000000000000000000000000000000000000000000000000600052602260045260246000fd5b6000601f19601f8301169050919050565b7f45524332303a207472616e7366657220746f20746865207a65726f206164647260008201527f6573730000000000000000000000000000000000000000000000000000000000602082015250565b7f416e64612062756b616e206d65727570616b616e206f776e657220616464726560008201527f7373000000000000000000000000000000000000000000000000000000000000602082015250565b7f4f776e61626c653a206e6577206f776e657220697320746865207a65726f206160008201527f6464726573730000000000000000000000000000000000000000000000000000602082015250565b7f45524332303a20617070726f766520746f20746865207a65726f20616464726560008201527f7373000000000000000000000000000000000000000000000000000000000000602082015250565b7f45524332303a20696e73756666696369656e7420616c6c6f77616e6365000000600082015250565b7f45524332303a207472616e7366657220616d6f756e742065786365656473206260008201527f616c616e63650000000000000000000000000000000000000000000000000000602082015250565b7f4f776e61626c653a2063616c6c6572206973206e6f7420746865206f776e6572600082015250565b7f45524332303a207472616e736665722066726f6d20746865207a65726f20616460008201527f6472657373000000000000000000000000000000000000000000000000000000602082015250565b7f45524332303a20617070726f76652066726f6d20746865207a65726f2061646460008201527f7265737300000000000000000000000000000000000000000000000000000000602082015250565b7f45524332303a2064656372656173656420616c6c6f77616e63652062656c6f7760008201527f207a65726f000000000000000000000000000000000000000000000000000000602082015250565b7f45524332303a206d696e7420746f20746865207a65726f206164647265737300600082015250565b611a1f816115fa565b8114611a2a57600080fd5b50565b611a3681611638565b8114611a4157600080fd5b5056fea2646970667358221220530662ef04fa185ffae5c52ae5effec8dea0001392771991c56ba4ed59894d8664736f6c63430008040033",
  "linkReferences": {},
  "deployedLinkReferences": {}
}