{
  "_format": "hh-sol-artifact-1",
  "contractName": "Salamun",
  "sourceName": "contracts/Salamun.sol",
  "abi": [
    {
      "inputs": [],
      "stateMutability": "nonpayable",
      "type": "constructor"
    },
    {
      "anonymous": false,
      "inputs": [
        {
          "indexed": true,
          "internalType": "address",
          "name": "owner",
          "type": "address"
        },
        {
          "indexed": true,
          "internalType": "address",
          "name": "approved",
          "type": "address"
        },
        {
          "indexed": true,
          "internalType": "uint256",
          "name": "tokenId",
          "type": "uint256"
        }
      ],
      "name": "Approval",
      "type": "event"
    },
    {
      "anonymous": false,
      "inputs": [
        {
          "indexed": true,
          "internalType": "address",
          "name": "owner",
          "type": "address"
        },
        {
          "indexed": true,
          "internalType": "address",
          "name": "operator",
          "type": "address"
        },
        {
          "indexed": false,
          "internalType": "bool",
          "name": "approved",
          "type": "bool"
        }
      ],
      "name": "ApprovalForAll",
      "type": "event"
    },
    {
      "anonymous": false,
      "inputs": [
        {
          "indexed": true,
          "internalType": "address",
          "name": "previousOwner",
          "type": "address"
        },
        {
          "indexed": true,
          "internalType": "address",
          "name": "newOwner",
          "type": "address"
        }
      ],
      "name": "OwnershipTransferred",
      "type": "event"
    },
    {
      "anonymous": false,
      "inputs": [
        {
          "indexed": true,
          "internalType": "address",
          "name": "from",
          "type": "address"
        },
        {
          "indexed": true,
          "internalType": "address",
          "name": "to",
          "type": "address"
        },
        {
          "indexed": true,
          "internalType": "uint256",
          "name": "tokenId",
          "type": "uint256"
        }
      ],
      "name": "Transfer",
      "type": "event"
    },
    {
      "inputs": [],
      "name": "MAX_SUPPLY",
      "outputs": [
        {
          "internalType": "uint256",
          "name": "",
          "type": "uint256"
        }
      ],
      "stateMutability": "view",
      "type": "function"
    },
    {
      "inputs": [
        {
          "internalType": "address",
          "name": "to",
          "type": "address"
        },
        {
          "internalType": "uint256",
          "name": "tokenId",
          "type": "uint256"
        }
      ],
      "name": "approve",
      "outputs": [],
      "stateMutability": "nonpayable",
      "type": "function"
    },
    {
      "inputs": [
        {
          "internalType": "address",
          "name": "owner",
          "type": "address"
        }
      ],
      "name": "balanceOf",
      "outputs": [
        {
          "internalType": "uint256",
          "name": "",
          "type": "uint256"
        }
      ],
      "stateMutability": "view",
      "type": "function"
    },
    {
      "inputs": [
        {
          "internalType": "uint256",
          "name": "tokenId",
          "type": "uint256"
        }
      ],
      "name": "getApproved",
      "outputs": [
        {
          "internalType": "address",
          "name": "",
          "type": "address"
        }
      ],
      "stateMutability": "view",
      "type": "function"
    },
    {
      "inputs": [
        {
          "internalType": "address",
          "name": "owner",
          "type": "address"
        },
        {
          "internalType": "address",
          "name": "operator",
          "type": "address"
        }
      ],
      "name": "isApprovedForAll",
      "outputs": [
        {
          "internalType": "bool",
          "name": "",
          "type": "bool"
        }
      ],
      "stateMutability": "view",
      "type": "function"
    },
    {
      "inputs": [
        {
          "internalType": "uint256",
          "name": "quantity_",
          "type": "uint256"
        }
      ],
      "name": "mint",
      "outputs": [],
      "stateMutability": "payable",
      "type": "function"
    },
    {
      "inputs": [],
      "name": "name",
      "outputs": [
        {
          "internalType": "string",
          "name": "",
          "type": "string"
        }
      ],
      "stateMutability": "view",
      "type": "function"
    },
    {
      "inputs": [],
      "name": "owner",
      "outputs": [
        {
          "internalType": "address",
          "name": "",
          "type": "address"
        }
      ],
      "stateMutability": "view",
      "type": "function"
    },
    {
      "inputs": [
        {
          "internalType": "uint256",
          "name": "tokenId",
          "type": "uint256"
        }
      ],
      "name": "ownerOf",
      "outputs": [
        {
          "internalType": "address",
          "name": "",
          "type": "address"
        }
      ],
      "stateMutability": "view",
      "type": "function"
    },
    {
      "inputs": [],
      "name": "renounceOwnership",
      "outputs": [],
      "stateMutability": "nonpayable",
      "type": "function"
    },
    {
      "inputs": [
        {
          "internalType": "address",
          "name": "from",
          "type": "address"
        },
        {
          "internalType": "address",
          "name": "to",
          "type": "address"
        },
        {
          "internalType": "uint256",
          "name": "tokenId",
          "type": "uint256"
        }
      ],
      "name": "safeTransferFrom",
      "outputs": [],
      "stateMutability": "nonpayable",
      "type": "function"
    },
    {
      "inputs": [
        {
          "internalType": "address",
          "name": "from",
          "type": "address"
        },
        {
          "internalType": "address",
          "name": "to",
          "type": "address"
        },
        {
          "internalType": "uint256",
          "name": "tokenId",
          "type": "uint256"
        },
        {
          "internalType": "bytes",
          "name": "_data",
          "type": "bytes"
        }
      ],
      "name": "safeTransferFrom",
      "outputs": [],
      "stateMutability": "nonpayable",
      "type": "function"
    },
    {
      "inputs": [
        {
          "internalType": "address",
          "name": "operator",
          "type": "address"
        },
        {
          "internalType": "bool",
          "name": "approved",
          "type": "bool"
        }
      ],
      "name": "setApprovalForAll",
      "outputs": [],
      "stateMutability": "nonpayable",
      "type": "function"
    },
    {
      "inputs": [
        {
          "internalType": "string",
          "name": "baseURI_",
          "type": "string"
        }
      ],
      "name": "setBaseURI",
      "outputs": [],
      "stateMutability": "nonpayable",
      "type": "function"
    },
    {
      "inputs": [
        {
          "internalType": "bytes4",
          "name": "interfaceId",
          "type": "bytes4"
        }
      ],
      "name": "supportsInterface",
      "outputs": [
        {
          "internalType": "bool",
          "name": "",
          "type": "bool"
        }
      ],
      "stateMutability": "view",
      "type": "function"
    },
    {
      "inputs": [],
      "name": "symbol",
      "outputs": [
        {
          "internalType": "string",
          "name": "",
          "type": "string"
        }
      ],
      "stateMutability": "view",
      "type": "function"
    },
    {
      "inputs": [
        {
          "internalType": "uint256",
          "name": "index",
          "type": "uint256"
        }
      ],
      "name": "tokenByIndex",
      "outputs": [
        {
          "internalType": "uint256",
          "name": "",
          "type": "uint256"
        }
      ],
      "stateMutability": "view",
      "type": "function"
    },
    {
      "inputs": [
        {
          "internalType": "address",
          "name": "owner",
          "type": "address"
        },
        {
          "internalType": "uint256",
          "name": "index",
          "type": "uint256"
        }
      ],
      "name": "tokenOfOwnerByIndex",
      "outputs": [
        {
          "internalType": "uint256",
          "name": "",
          "type": "uint256"
        }
      ],
      "stateMutability": "view",
      "type": "function"
    },
    {
      "inputs": [
        {
          "internalType": "uint256",
          "name": "tokenId",
          "type": "uint256"
        }
      ],
      "name": "tokenURI",
      "outputs": [
        {
          "internalType": "string",
          "name": "",
          "type": "string"
        }
      ],
      "stateMutability": "view",
      "type": "function"
    },
    {
      "inputs": [],
      "name": "totalSupply",
      "outputs": [
        {
          "internalType": "uint256",
          "name": "",
          "type": "uint256"
        }
      ],
      "stateMutability": "view",
      "type": "function"
    },
    {
      "inputs": [
        {
          "internalType": "address",
          "name": "from",
          "type": "address"
        },
        {
          "internalType": "address",
          "name": "to",
          "type": "address"
        },
        {
          "internalType": "uint256",
          "name": "tokenId",
          "type": "uint256"
        }
      ],
      "name": "transferFrom",
      "outputs": [],
      "stateMutability": "nonpayable",
      "type": "function"
    },
    {
      "inputs": [
        {
          "internalType": "address",
          "name": "newOwner",
          "type": "address"
        }
      ],
      "name": "transferOwnership",
      "outputs": [],
      "stateMutability": "nonpayable",
      "type": "function"
    }
  ],
  "bytecode": "0x60806040523480156200001157600080fd5b506040518060400160405280600781526020017f53616c616d756e000000000000000000000000000000000000000000000000008152506040518060400160405280600381526020017f53414c0000000000000000000000000000000000000000000000000000000000815250816000908051906020019062000096929190620001a6565b508060019080519060200190620000af929190620001a6565b505050620000d2620000c6620000d860201b60201c565b620000e060201b60201c565b620002bb565b600033905090565b6000600a60009054906101000a900473ffffffffffffffffffffffffffffffffffffffff16905081600a60006101000a81548173ffffffffffffffffffffffffffffffffffffffff021916908373ffffffffffffffffffffffffffffffffffffffff1602179055508173ffffffffffffffffffffffffffffffffffffffff168173ffffffffffffffffffffffffffffffffffffffff167f8be0079c531659141344cd1fd0a4f28419497f9722a3daafe3b4186f6b6457e060405160405180910390a35050565b828054620001b49062000256565b90600052602060002090601f016020900481019282620001d8576000855562000224565b82601f10620001f357805160ff191683800117855562000224565b8280016001018555821562000224579182015b828111156200022357825182559160200191906001019062000206565b5b50905062000233919062000237565b5090565b5b808211156200025257600081600090555060010162000238565b5090565b600060028204905060018216806200026f57607f821691505b602082108114156200028657620002856200028c565b5b50919050565b7f4e487b7100000000000000000000000000000000000000000000000000000000600052602260045260246000fd5b6137aa80620002cb6000396000f3fe6080604052600436106101355760003560e01c80636352211e116100ab578063a0712d681161006f578063a0712d681461043a578063a22cb46514610456578063b88d4fde1461047f578063c87b56dd146104a8578063e985e9c5146104e5578063f2fde38b1461052257610135565b80636352211e1461035357806370a0823114610390578063715018a6146103cd5780638da5cb5b146103e457806395d89b411461040f57610135565b806323b872dd116100fd57806323b872dd146102335780632f745c591461025c57806332cb6b0c1461029957806342842e0e146102c45780634f6ccce7146102ed57806355f804b31461032a57610135565b806301ffc9a71461013a57806306fdde0314610177578063081812fc146101a2578063095ea7b3146101df57806318160ddd14610208575b600080fd5b34801561014657600080fd5b50610161600480360381019061015c91906126d9565b61054b565b60405161016e9190612b8d565b60405180910390f35b34801561018357600080fd5b5061018c6105c5565b6040516101999190612ba8565b60405180910390f35b3480156101ae57600080fd5b506101c960048036038101906101c49190612770565b610657565b6040516101d69190612b26565b60405180910390f35b3480156101eb57600080fd5b506102066004803603810190610201919061269d565b6106dc565b005b34801561021457600080fd5b5061021d6107f4565b60405161022a9190612e2a565b60405180910390f35b34801561023f57600080fd5b5061025a60048036038101906102559190612597565b610801565b005b34801561026857600080fd5b50610283600480360381019061027e919061269d565b610861565b6040516102909190612e2a565b60405180910390f35b3480156102a557600080fd5b506102ae610906565b6040516102bb9190612e2a565b60405180910390f35b3480156102d057600080fd5b506102eb60048036038101906102e69190612597565b61090b565b005b3480156102f957600080fd5b50610314600480360381019061030f9190612770565b61092b565b6040516103219190612e2a565b60405180910390f35b34801561033657600080fd5b50610351600480360381019061034c919061272b565b6109c2565b005b34801561035f57600080fd5b5061037a60048036038101906103759190612770565b610a54565b6040516103879190612b26565b60405180910390f35b34801561039c57600080fd5b506103b760048036038101906103b29190612532565b610b06565b6040516103c49190612e2a565b60405180910390f35b3480156103d957600080fd5b506103e2610bbe565b005b3480156103f057600080fd5b506103f9610c46565b6040516104069190612b26565b60405180910390f35b34801561041b57600080fd5b50610424610c70565b6040516104319190612ba8565b60405180910390f35b610454600480360381019061044f9190612770565b610d02565b005b34801561046257600080fd5b5061047d60048036038101906104789190612661565b610d9a565b005b34801561048b57600080fd5b506104a660048036038101906104a191906125e6565b610db0565b005b3480156104b457600080fd5b506104cf60048036038101906104ca9190612770565b610e12565b6040516104dc9190612ba8565b60405180910390f35b3480156104f157600080fd5b5061050c6004803603810190610507919061255b565b610eb9565b6040516105199190612b8d565b60405180910390f35b34801561052e57600080fd5b5061054960048036038101906105449190612532565b610f4d565b005b60007f780e9d63000000000000000000000000000000000000000000000000000000007bffffffffffffffffffffffffffffffffffffffffffffffffffffffff1916827bffffffffffffffffffffffffffffffffffffffffffffffffffffffff191614806105be57506105bd82611045565b5b9050919050565b6060600080546105d49061304f565b80601f01602080910402602001604051908101604052809291908181526020018280546106009061304f565b801561064d5780601f106106225761010080835404028352916020019161064d565b820191906000526020600020905b81548152906001019060200180831161063057829003601f168201915b5050505050905090565b600061066282611127565b6106a1576040517f08c379a000000000000000000000000000000000000000000000000000000000815260040161069890612d4a565b60405180910390fd5b6004600083815260200190815260200160002060009054906101000a900473ffffffffffffffffffffffffffffffffffffffff169050919050565b60006106e782610a54565b90508073ffffffffffffffffffffffffffffffffffffffff168373ffffffffffffffffffffffffffffffffffffffff161415610758576040517f08c379a000000000000000000000000000000000000000000000000000000000815260040161074f90612dca565b60405180910390fd5b8073ffffffffffffffffffffffffffffffffffffffff16610777611193565b73ffffffffffffffffffffffffffffffffffffffff1614806107a657506107a5816107a0611193565b610eb9565b5b6107e5576040517f08c379a00000000000000000000000000000000000000000000000000000000081526004016107dc90612cca565b60405180910390fd5b6107ef838361119b565b505050565b6000600880549050905090565b61081261080c611193565b82611254565b610851576040517f08c379a000000000000000000000000000000000000000000000000000000000815260040161084890612dea565b60405180910390fd5b61085c838383611332565b505050565b600061086c83610b06565b82106108ad576040517f08c379a00000000000000000000000000000000000000000000000000000000081526004016108a490612bca565b60405180910390fd5b600660008473ffffffffffffffffffffffffffffffffffffffff1673ffffffffffffffffffffffffffffffffffffffff168152602001908152602001600020600083815260200190815260200160002054905092915050565b601481565b61092683838360405180602001604052806000815250610db0565b505050565b60006109356107f4565b8210610976576040517f08c379a000000000000000000000000000000000000000000000000000000000815260040161096d90612e0a565b60405180910390fd5b600882815481106109b0577f4e487b7100000000000000000000000000000000000000000000000000000000600052603260045260246000fd5b90600052602060002001549050919050565b6109ca611193565b73ffffffffffffffffffffffffffffffffffffffff166109e8610c46565b73ffffffffffffffffffffffffffffffffffffffff1614610a3e576040517f08c379a0000000000000000000000000000000000000000000000000000000008152600401610a3590612d6a565b60405180910390fd5b8181600b9190610a4f929190612374565b505050565b6000806002600084815260200190815260200160002060009054906101000a900473ffffffffffffffffffffffffffffffffffffffff169050600073ffffffffffffffffffffffffffffffffffffffff168173ffffffffffffffffffffffffffffffffffffffff161415610afd576040517f08c379a0000000000000000000000000000000000000000000000000000000008152600401610af490612d0a565b60405180910390fd5b80915050919050565b60008073ffffffffffffffffffffffffffffffffffffffff168273ffffffffffffffffffffffffffffffffffffffff161415610b77576040517f08c379a0000000000000000000000000000000000000000000000000000000008152600401610b6e90612cea565b60405180910390fd5b600360008373ffffffffffffffffffffffffffffffffffffffff1673ffffffffffffffffffffffffffffffffffffffff168152602001908152602001600020549050919050565b610bc6611193565b73ffffffffffffffffffffffffffffffffffffffff16610be4610c46565b73ffffffffffffffffffffffffffffffffffffffff1614610c3a576040517f08c379a0000000000000000000000000000000000000000000000000000000008152600401610c3190612d6a565b60405180910390fd5b610c446000611599565b565b6000600a60009054906101000a900473ffffffffffffffffffffffffffffffffffffffff16905090565b606060018054610c7f9061304f565b80601f0160208091040260200160405190810160405280929190818152602001828054610cab9061304f565b8015610cf85780601f10610ccd57610100808354040283529160200191610cf8565b820191906000526020600020905b815481529060010190602001808311610cdb57829003601f168201915b5050505050905090565b601481610d0d6107f4565b610d179190612ede565b1115610d58576040517f08c379a0000000000000000000000000000000000000000000000000000000008152600401610d4f90612daa565b60405180910390fd5b6000600190505b818111610d9657610d83336001610d746107f4565b610d7e9190612ede565b61165f565b8080610d8e906130b2565b915050610d5f565b5050565b610dac610da5611193565b838361167d565b5050565b610dc1610dbb611193565b83611254565b610e00576040517f08c379a0000000000000000000000000000000000000000000000000000000008152600401610df790612dea565b60405180910390fd5b610e0c848484846117ea565b50505050565b6060610e1d82611127565b610e5c576040517f08c379a0000000000000000000000000000000000000000000000000000000008152600401610e5390612d8a565b60405180910390fd5b6000610e66611846565b90506000815111610e865760405180602001604052806000815250610eb1565b80610e90846118d8565b604051602001610ea1929190612b02565b6040516020818303038152906040525b915050919050565b6000600560008473ffffffffffffffffffffffffffffffffffffffff1673ffffffffffffffffffffffffffffffffffffffff16815260200190815260200160002060008373ffffffffffffffffffffffffffffffffffffffff1673ffffffffffffffffffffffffffffffffffffffff16815260200190815260200160002060009054906101000a900460ff16905092915050565b610f55611193565b73ffffffffffffffffffffffffffffffffffffffff16610f73610c46565b73ffffffffffffffffffffffffffffffffffffffff1614610fc9576040517f08c379a0000000000000000000000000000000000000000000000000000000008152600401610fc090612d6a565b60405180910390fd5b600073ffffffffffffffffffffffffffffffffffffffff168173ffffffffffffffffffffffffffffffffffffffff161415611039576040517f08c379a000000000000000000000000000000000000000000000000000000000815260040161103090612c0a565b60405180910390fd5b61104281611599565b50565b60007f80ac58cd000000000000000000000000000000000000000000000000000000007bffffffffffffffffffffffffffffffffffffffffffffffffffffffff1916827bffffffffffffffffffffffffffffffffffffffffffffffffffffffff1916148061111057507f5b5e139f000000000000000000000000000000000000000000000000000000007bffffffffffffffffffffffffffffffffffffffffffffffffffffffff1916827bffffffffffffffffffffffffffffffffffffffffffffffffffffffff1916145b80611120575061111f82611a85565b5b9050919050565b60008073ffffffffffffffffffffffffffffffffffffffff166002600084815260200190815260200160002060009054906101000a900473ffffffffffffffffffffffffffffffffffffffff1673ffffffffffffffffffffffffffffffffffffffff1614159050919050565b600033905090565b816004600083815260200190815260200160002060006101000a81548173ffffffffffffffffffffffffffffffffffffffff021916908373ffffffffffffffffffffffffffffffffffffffff160217905550808273ffffffffffffffffffffffffffffffffffffffff1661120e83610a54565b73ffffffffffffffffffffffffffffffffffffffff167f8c5be1e5ebec7d5bd14f71427d1e84f3dd0314c0f7b2291e5b200ac8c7c3b92560405160405180910390a45050565b600061125f82611127565b61129e576040517f08c379a000000000000000000000000000000000000000000000000000000000815260040161129590612caa565b60405180910390fd5b60006112a983610a54565b90508073ffffffffffffffffffffffffffffffffffffffff168473ffffffffffffffffffffffffffffffffffffffff1614806112eb57506112ea8185610eb9565b5b8061132957508373ffffffffffffffffffffffffffffffffffffffff1661131184610657565b73ffffffffffffffffffffffffffffffffffffffff16145b91505092915050565b8273ffffffffffffffffffffffffffffffffffffffff1661135282610a54565b73ffffffffffffffffffffffffffffffffffffffff16146113a8576040517f08c379a000000000000000000000000000000000000000000000000000000000815260040161139f90612c2a565b60405180910390fd5b600073ffffffffffffffffffffffffffffffffffffffff168273ffffffffffffffffffffffffffffffffffffffff161415611418576040517f08c379a000000000000000000000000000000000000000000000000000000000815260040161140f90612c6a565b60405180910390fd5b611423838383611aef565b61142e60008261119b565b6001600360008573ffffffffffffffffffffffffffffffffffffffff1673ffffffffffffffffffffffffffffffffffffffff168152602001908152602001600020600082825461147e9190612f65565b925050819055506001600360008473ffffffffffffffffffffffffffffffffffffffff1673ffffffffffffffffffffffffffffffffffffffff16815260200190815260200160002060008282546114d59190612ede565b92505081905550816002600083815260200190815260200160002060006101000a81548173ffffffffffffffffffffffffffffffffffffffff021916908373ffffffffffffffffffffffffffffffffffffffff160217905550808273ffffffffffffffffffffffffffffffffffffffff168473ffffffffffffffffffffffffffffffffffffffff167fddf252ad1be2c89b69c2b068fc378daa952ba7f163c4a11628f55a4df523b3ef60405160405180910390a4611594838383611c03565b505050565b6000600a60009054906101000a900473ffffffffffffffffffffffffffffffffffffffff16905081600a60006101000a81548173ffffffffffffffffffffffffffffffffffffffff021916908373ffffffffffffffffffffffffffffffffffffffff1602179055508173ffffffffffffffffffffffffffffffffffffffff168173ffffffffffffffffffffffffffffffffffffffff167f8be0079c531659141344cd1fd0a4f28419497f9722a3daafe3b4186f6b6457e060405160405180910390a35050565b611679828260405180602001604052806000815250611c08565b5050565b8173ffffffffffffffffffffffffffffffffffffffff168373ffffffffffffffffffffffffffffffffffffffff1614156116ec576040517f08c379a00000000000000000000000000000000000000000000000000000000081526004016116e390612c8a565b60405180910390fd5b80600560008573ffffffffffffffffffffffffffffffffffffffff1673ffffffffffffffffffffffffffffffffffffffff16815260200190815260200160002060008473ffffffffffffffffffffffffffffffffffffffff1673ffffffffffffffffffffffffffffffffffffffff16815260200190815260200160002060006101000a81548160ff0219169083151502179055508173ffffffffffffffffffffffffffffffffffffffff168373ffffffffffffffffffffffffffffffffffffffff167f17307eab39ab6107e8899845ad3d59bd9653f200f220920489ca2b5937696c31836040516117dd9190612b8d565b60405180910390a3505050565b6117f5848484611332565b61180184848484611c63565b611840576040517f08c379a000000000000000000000000000000000000000000000000000000000815260040161183790612bea565b60405180910390fd5b50505050565b6060600b80546118559061304f565b80601f01602080910402602001604051908101604052809291908181526020018280546118819061304f565b80156118ce5780601f106118a3576101008083540402835291602001916118ce565b820191906000526020600020905b8154815290600101906020018083116118b157829003601f168201915b5050505050905090565b60606000821415611920576040518060400160405280600181526020017f30000000000000000000000000000000000000000000000000000000000000008152509050611a80565b600082905060005b6000821461195257808061193b906130b2565b915050600a8261194b9190612f34565b9150611928565b60008167ffffffffffffffff811115611994577f4e487b7100000000000000000000000000000000000000000000000000000000600052604160045260246000fd5b6040519080825280601f01601f1916602001820160405280156119c65781602001600182028036833780820191505090505b5090505b60008514611a79576001826119df9190612f65565b9150600a856119ee91906130fb565b60306119fa9190612ede565b60f81b818381518110611a36577f4e487b7100000000000000000000000000000000000000000000000000000000600052603260045260246000fd5b60200101907effffffffffffffffffffffffffffffffffffffffffffffffffffffffffffff1916908160001a905350600a85611a729190612f34565b94506119ca565b8093505050505b919050565b60007f01ffc9a7000000000000000000000000000000000000000000000000000000007bffffffffffffffffffffffffffffffffffffffffffffffffffffffff1916827bffffffffffffffffffffffffffffffffffffffffffffffffffffffff1916149050919050565b611afa838383611dfa565b600073ffffffffffffffffffffffffffffffffffffffff168373ffffffffffffffffffffffffffffffffffffffff161415611b3d57611b3881611dff565b611b7c565b8173ffffffffffffffffffffffffffffffffffffffff168373ffffffffffffffffffffffffffffffffffffffff1614611b7b57611b7a8382611e48565b5b5b600073ffffffffffffffffffffffffffffffffffffffff168273ffffffffffffffffffffffffffffffffffffffff161415611bbf57611bba81611fb5565b611bfe565b8273ffffffffffffffffffffffffffffffffffffffff168273ffffffffffffffffffffffffffffffffffffffff1614611bfd57611bfc82826120f8565b5b5b505050565b505050565b611c128383612177565b611c1f6000848484611c63565b611c5e576040517f08c379a0000000000000000000000000000000000000000000000000000000008152600401611c5590612bea565b60405180910390fd5b505050565b6000611c848473ffffffffffffffffffffffffffffffffffffffff16612351565b15611ded578373ffffffffffffffffffffffffffffffffffffffff1663150b7a02611cad611193565b8786866040518563ffffffff1660e01b8152600401611ccf9493929190612b41565b602060405180830381600087803b158015611ce957600080fd5b505af1925050508015611d1a57506040513d601f19601f82011682018060405250810190611d179190612702565b60015b611d9d573d8060008114611d4a576040519150601f19603f3d011682016040523d82523d6000602084013e611d4f565b606091505b50600081511415611d95576040517f08c379a0000000000000000000000000000000000000000000000000000000008152600401611d8c90612bea565b60405180910390fd5b805181602001fd5b63150b7a0260e01b7bffffffffffffffffffffffffffffffffffffffffffffffffffffffff1916817bffffffffffffffffffffffffffffffffffffffffffffffffffffffff191614915050611df2565b600190505b949350505050565b505050565b6008805490506009600083815260200190815260200160002081905550600881908060018154018082558091505060019003906000526020600020016000909190919091505550565b60006001611e5584610b06565b611e5f9190612f65565b9050600060076000848152602001908152602001600020549050818114611f44576000600660008673ffffffffffffffffffffffffffffffffffffffff1673ffffffffffffffffffffffffffffffffffffffff168152602001908152602001600020600084815260200190815260200160002054905080600660008773ffffffffffffffffffffffffffffffffffffffff1673ffffffffffffffffffffffffffffffffffffffff168152602001908152602001600020600084815260200190815260200160002081905550816007600083815260200190815260200160002081905550505b6007600084815260200190815260200160002060009055600660008573ffffffffffffffffffffffffffffffffffffffff1673ffffffffffffffffffffffffffffffffffffffff16815260200190815260200160002060008381526020019081526020016000206000905550505050565b60006001600880549050611fc99190612f65565b905060006009600084815260200190815260200160002054905060006008838154811061201f577f4e487b7100000000000000000000000000000000000000000000000000000000600052603260045260246000fd5b906000526020600020015490508060088381548110612067577f4e487b7100000000000000000000000000000000000000000000000000000000600052603260045260246000fd5b9060005260206000200181905550816009600083815260200190815260200160002081905550600960008581526020019081526020016000206000905560088054806120dc577f4e487b7100000000000000000000000000000000000000000000000000000000600052603160045260246000fd5b6001900381819060005260206000200160009055905550505050565b600061210383610b06565b905081600660008573ffffffffffffffffffffffffffffffffffffffff1673ffffffffffffffffffffffffffffffffffffffff168152602001908152602001600020600083815260200190815260200160002081905550806007600084815260200190815260200160002081905550505050565b600073ffffffffffffffffffffffffffffffffffffffff168273ffffffffffffffffffffffffffffffffffffffff1614156121e7576040517f08c379a00000000000000000000000000000000000000000000000000000000081526004016121de90612d2a565b60405180910390fd5b6121f081611127565b15612230576040517f08c379a000000000000000000000000000000000000000000000000000000000815260040161222790612c4a565b60405180910390fd5b61223c60008383611aef565b6001600360008473ffffffffffffffffffffffffffffffffffffffff1673ffffffffffffffffffffffffffffffffffffffff168152602001908152602001600020600082825461228c9190612ede565b92505081905550816002600083815260200190815260200160002060006101000a81548173ffffffffffffffffffffffffffffffffffffffff021916908373ffffffffffffffffffffffffffffffffffffffff160217905550808273ffffffffffffffffffffffffffffffffffffffff16600073ffffffffffffffffffffffffffffffffffffffff167fddf252ad1be2c89b69c2b068fc378daa952ba7f163c4a11628f55a4df523b3ef60405160405180910390a461234d60008383611c03565b5050565b6000808273ffffffffffffffffffffffffffffffffffffffff163b119050919050565b8280546123809061304f565b90600052602060002090601f0160209004810192826123a257600085556123e9565b82601f106123bb57803560ff19168380011785556123e9565b828001600101855582156123e9579182015b828111156123e85782358255916020019190600101906123cd565b5b5090506123f691906123fa565b5090565b5b808211156124135760008160009055506001016123fb565b5090565b600061242a61242584612e6a565b612e45565b90508281526020810184848401111561244257600080fd5b61244d84828561300d565b509392505050565b60008135905061246481613718565b92915050565b6000813590506124798161372f565b92915050565b60008135905061248e81613746565b92915050565b6000815190506124a381613746565b92915050565b600082601f8301126124ba57600080fd5b81356124ca848260208601612417565b91505092915050565b60008083601f8401126124e557600080fd5b8235905067ffffffffffffffff8111156124fe57600080fd5b60208301915083600182028301111561251657600080fd5b9250929050565b60008135905061252c8161375d565b92915050565b60006020828403121561254457600080fd5b600061255284828501612455565b91505092915050565b6000806040838503121561256e57600080fd5b600061257c85828601612455565b925050602061258d85828601612455565b9150509250929050565b6000806000606084860312156125ac57600080fd5b60006125ba86828701612455565b93505060206125cb86828701612455565b92505060406125dc8682870161251d565b9150509250925092565b600080600080608085870312156125fc57600080fd5b600061260a87828801612455565b945050602061261b87828801612455565b935050604061262c8782880161251d565b925050606085013567ffffffffffffffff81111561264957600080fd5b612655878288016124a9565b91505092959194509250565b6000806040838503121561267457600080fd5b600061268285828601612455565b92505060206126938582860161246a565b9150509250929050565b600080604083850312156126b057600080fd5b60006126be85828601612455565b92505060206126cf8582860161251d565b9150509250929050565b6000602082840312156126eb57600080fd5b60006126f98482850161247f565b91505092915050565b60006020828403121561271457600080fd5b600061272284828501612494565b91505092915050565b6000806020838503121561273e57600080fd5b600083013567ffffffffffffffff81111561275857600080fd5b612764858286016124d3565b92509250509250929050565b60006020828403121561278257600080fd5b60006127908482850161251d565b91505092915050565b6127a281612f99565b82525050565b6127b181612fab565b82525050565b60006127c282612e9b565b6127cc8185612eb1565b93506127dc81856020860161301c565b6127e5816131e8565b840191505092915050565b60006127fb82612ea6565b6128058185612ec2565b935061281581856020860161301c565b61281e816131e8565b840191505092915050565b600061283482612ea6565b61283e8185612ed3565b935061284e81856020860161301c565b80840191505092915050565b6000612867602b83612ec2565b9150612872826131f9565b604082019050919050565b600061288a603283612ec2565b915061289582613248565b604082019050919050565b60006128ad602683612ec2565b91506128b882613297565b604082019050919050565b60006128d0602583612ec2565b91506128db826132e6565b604082019050919050565b60006128f3601c83612ec2565b91506128fe82613335565b602082019050919050565b6000612916602483612ec2565b91506129218261335e565b604082019050919050565b6000612939601983612ec2565b9150612944826133ad565b602082019050919050565b600061295c602c83612ec2565b9150612967826133d6565b604082019050919050565b600061297f603883612ec2565b915061298a82613425565b604082019050919050565b60006129a2602a83612ec2565b91506129ad82613474565b604082019050919050565b60006129c5602983612ec2565b91506129d0826134c3565b604082019050919050565b60006129e8602083612ec2565b91506129f382613512565b602082019050919050565b6000612a0b602c83612ec2565b9150612a168261353b565b604082019050919050565b6000612a2e602083612ec2565b9150612a398261358a565b602082019050919050565b6000612a51602f83612ec2565b9150612a5c826135b3565b604082019050919050565b6000612a74601a83612ec2565b9150612a7f82613602565b602082019050919050565b6000612a97602183612ec2565b9150612aa28261362b565b604082019050919050565b6000612aba603183612ec2565b9150612ac58261367a565b604082019050919050565b6000612add602c83612ec2565b9150612ae8826136c9565b604082019050919050565b612afc81613003565b82525050565b6000612b0e8285612829565b9150612b1a8284612829565b91508190509392505050565b6000602082019050612b3b6000830184612799565b92915050565b6000608082019050612b566000830187612799565b612b636020830186612799565b612b706040830185612af3565b8181036060830152612b8281846127b7565b905095945050505050565b6000602082019050612ba260008301846127a8565b92915050565b60006020820190508181036000830152612bc281846127f0565b905092915050565b60006020820190508181036000830152612be38161285a565b9050919050565b60006020820190508181036000830152612c038161287d565b9050919050565b60006020820190508181036000830152612c23816128a0565b9050919050565b60006020820190508181036000830152612c43816128c3565b9050919050565b60006020820190508181036000830152612c63816128e6565b9050919050565b60006020820190508181036000830152612c8381612909565b9050919050565b60006020820190508181036000830152612ca38161292c565b9050919050565b60006020820190508181036000830152612cc38161294f565b9050919050565b60006020820190508181036000830152612ce381612972565b9050919050565b60006020820190508181036000830152612d0381612995565b9050919050565b60006020820190508181036000830152612d23816129b8565b9050919050565b60006020820190508181036000830152612d43816129db565b9050919050565b60006020820190508181036000830152612d63816129fe565b9050919050565b60006020820190508181036000830152612d8381612a21565b9050919050565b60006020820190508181036000830152612da381612a44565b9050919050565b60006020820190508181036000830152612dc381612a67565b9050919050565b60006020820190508181036000830152612de381612a8a565b9050919050565b60006020820190508181036000830152612e0381612aad565b9050919050565b60006020820190508181036000830152612e2381612ad0565b9050919050565b6000602082019050612e3f6000830184612af3565b92915050565b6000612e4f612e60565b9050612e5b8282613081565b919050565b6000604051905090565b600067ffffffffffffffff821115612e8557612e846131b9565b5b612e8e826131e8565b9050602081019050919050565b600081519050919050565b600081519050919050565b600082825260208201905092915050565b600082825260208201905092915050565b600081905092915050565b6000612ee982613003565b9150612ef483613003565b9250827fffffffffffffffffffffffffffffffffffffffffffffffffffffffffffffffff03821115612f2957612f2861312c565b5b828201905092915050565b6000612f3f82613003565b9150612f4a83613003565b925082612f5a57612f5961315b565b5b828204905092915050565b6000612f7082613003565b9150612f7b83613003565b925082821015612f8e57612f8d61312c565b5b828203905092915050565b6000612fa482612fe3565b9050919050565b60008115159050919050565b60007fffffffff0000000000000000000000000000000000000000000000000000000082169050919050565b600073ffffffffffffffffffffffffffffffffffffffff82169050919050565b6000819050919050565b82818337600083830152505050565b60005b8381101561303a57808201518184015260208101905061301f565b83811115613049576000848401525b50505050565b6000600282049050600182168061306757607f821691505b6020821081141561307b5761307a61318a565b5b50919050565b61308a826131e8565b810181811067ffffffffffffffff821117156130a9576130a86131b9565b5b80604052505050565b60006130bd82613003565b91507fffffffffffffffffffffffffffffffffffffffffffffffffffffffffffffffff8214156130f0576130ef61312c565b5b600182019050919050565b600061310682613003565b915061311183613003565b9250826131215761312061315b565b5b828206905092915050565b7f4e487b7100000000000000000000000000000000000000000000000000000000600052601160045260246000fd5b7f4e487b7100000000000000000000000000000000000000000000000000000000600052601260045260246000fd5b7f4e487b7100000000000000000000000000000000000000000000000000000000600052602260045260246000fd5b7f4e487b7100000000000000000000000000000000000000000000000000000000600052604160045260246000fd5b6000601f19601f8301169050919050565b7f455243373231456e756d657261626c653a206f776e657220696e646578206f7560008201527f74206f6620626f756e6473000000000000000000000000000000000000000000602082015250565b7f4552433732313a207472616e7366657220746f206e6f6e20455243373231526560008201527f63656976657220696d706c656d656e7465720000000000000000000000000000602082015250565b7f4f776e61626c653a206e6577206f776e657220697320746865207a65726f206160008201527f6464726573730000000000000000000000000000000000000000000000000000602082015250565b7f4552433732313a207472616e736665722066726f6d20696e636f72726563742060008201527f6f776e6572000000000000000000000000000000000000000000000000000000602082015250565b7f4552433732313a20746f6b656e20616c7265616479206d696e74656400000000600082015250565b7f4552433732313a207472616e7366657220746f20746865207a65726f2061646460008201527f7265737300000000000000000000000000000000000000000000000000000000602082015250565b7f4552433732313a20617070726f766520746f2063616c6c657200000000000000600082015250565b7f4552433732313a206f70657261746f7220717565727920666f72206e6f6e657860008201527f697374656e7420746f6b656e0000000000000000000000000000000000000000602082015250565b7f4552433732313a20617070726f76652063616c6c6572206973206e6f74206f7760008201527f6e6572206e6f7220617070726f76656420666f7220616c6c0000000000000000602082015250565b7f4552433732313a2062616c616e636520717565727920666f7220746865207a6560008201527f726f206164647265737300000000000000000000000000000000000000000000602082015250565b7f4552433732313a206f776e657220717565727920666f72206e6f6e657869737460008201527f656e7420746f6b656e0000000000000000000000000000000000000000000000602082015250565b7f4552433732313a206d696e7420746f20746865207a65726f2061646472657373600082015250565b7f4552433732313a20617070726f76656420717565727920666f72206e6f6e657860008201527f697374656e7420746f6b656e0000000000000000000000000000000000000000602082015250565b7f4f776e61626c653a2063616c6c6572206973206e6f7420746865206f776e6572600082015250565b7f4552433732314d657461646174613a2055524920717565727920666f72206e6f60008201527f6e6578697374656e7420746f6b656e0000000000000000000000000000000000602082015250565b7f4d617820737570706c792073756461682074657270656e756869000000000000600082015250565b7f4552433732313a20617070726f76616c20746f2063757272656e74206f776e6560008201527f7200000000000000000000000000000000000000000000000000000000000000602082015250565b7f4552433732313a207472616e736665722063616c6c6572206973206e6f74206f60008201527f776e6572206e6f7220617070726f766564000000000000000000000000000000602082015250565b7f455243373231456e756d657261626c653a20676c6f62616c20696e646578206f60008201527f7574206f6620626f756e64730000000000000000000000000000000000000000602082015250565b61372181612f99565b811461372c57600080fd5b50565b61373881612fab565b811461374357600080fd5b50565b61374f81612fb7565b811461375a57600080fd5b50565b61376681613003565b811461377157600080fd5b5056fea2646970667358221220f28cf1add77cb934505597de9b2f9b6ec35b8c040b702baab48d1e305202665f64736f6c63430008040033",
  "linkReferences": {},
  "deployedLinkReferences": {}
}