{
  "_format": "hh-sol-artifact-1",
  "contractName": "SalamunStaking",
  "sourceName": "contracts/SalamunStaking.sol",
  "abi": [
    {
      "inputs": [
        {
          "internalType": "address",
          "name": "salamunToken_",
          "type": "address"
        },
        {
          "internalType": "address",
          "name": "salamun_",
          "type": "address"
        }
      ],
      "stateMutability": "nonpayable",
      "type": "constructor"
    },
    {
      "inputs": [
        {
          "internalType": "uint256",
          "name": "tokenId_",
          "type": "uint256"
        }
      ],
      "name": "claim",
      "outputs": [],
      "stateMutability": "nonpayable",
      "type": "function"
    },
    {
      "inputs": [],
      "name": "salamun",
      "outputs": [
        {
          "internalType": "contract ISalamun",
          "name": "",
          "type": "address"
        }
      ],
      "stateMutability": "view",
      "type": "function"
    },
    {
      "inputs": [],
      "name": "salamunToken",
      "outputs": [
        {
          "internalType": "contract ISalamunToken",
          "name": "",
          "type": "address"
        }
      ],
      "stateMutability": "view",
      "type": "function"
    },
    {
      "inputs": [
        {
          "internalType": "uint256",
          "name": "tokenId_",
          "type": "uint256"
        }
      ],
      "name": "stake",
      "outputs": [],
      "stateMutability": "nonpayable",
      "type": "function"
    },
    {
      "inputs": [
        {
          "internalType": "uint256",
          "name": "tokenId_",
          "type": "uint256"
        }
      ],
      "name": "unstake",
      "outputs": [],
      "stateMutability": "nonpayable",
      "type": "function"
    }
  ],
  "bytecode": "0x608060405234801561001057600080fd5b50604051610c37380380610c37833981810160405281019061003291906100cf565b816000806101000a81548173ffffffffffffffffffffffffffffffffffffffff021916908373ffffffffffffffffffffffffffffffffffffffff16021790555080600160006101000a81548173ffffffffffffffffffffffffffffffffffffffff021916908373ffffffffffffffffffffffffffffffffffffffff1602179055505050610154565b6000815190506100c98161013d565b92915050565b600080604083850312156100e257600080fd5b60006100f0858286016100ba565b9250506020610101858286016100ba565b9150509250929050565b60006101168261011d565b9050919050565b600073ffffffffffffffffffffffffffffffffffffffff82169050919050565b6101468161010b565b811461015157600080fd5b50565b610ad4806101636000396000f3fe608060405234801561001057600080fd5b50600436106100575760003560e01c806310b4653e1461005c5780632e17de781461007a578063379607f51461009657806395d0e9a6146100b2578063a694fc3a146100d0575b600080fd5b6100646100ec565b604051610071919061081f565b60405180910390f35b610094600480360381019061008f9190610730565b610112565b005b6100b060048036038101906100ab9190610730565b6102ab565b005b6100ba61055f565b6040516100c79190610804565b60405180910390f35b6100ea60048036038101906100e59190610730565b610583565b005b600160009054906101000a900473ffffffffffffffffffffffffffffffffffffffff1681565b3373ffffffffffffffffffffffffffffffffffffffff16600160009054906101000a900473ffffffffffffffffffffffffffffffffffffffff1673ffffffffffffffffffffffffffffffffffffffff16636352211e836040518263ffffffff1660e01b8152600401610184919061087a565b60206040518083038186803b15801561019c57600080fd5b505afa1580156101b0573d6000803e3d6000fd5b505050506040513d601f19601f820116820180604052508101906101d49190610707565b73ffffffffffffffffffffffffffffffffffffffff161461022a576040517f08c379a00000000000000000000000000000000000000000000000000000000081526004016102219061085a565b60405180910390fd5b80600260008381526020019081526020016000206000015414610282576040517f08c379a00000000000000000000000000000000000000000000000000000000081526004016102799061083a565b60405180910390fd5b600260008281526020019081526020016000206000808201600090556001820160009055505050565b3373ffffffffffffffffffffffffffffffffffffffff16600160009054906101000a900473ffffffffffffffffffffffffffffffffffffffff1673ffffffffffffffffffffffffffffffffffffffff16636352211e836040518263ffffffff1660e01b815260040161031d919061087a565b60206040518083038186803b15801561033557600080fd5b505afa158015610349573d6000803e3d6000fd5b505050506040513d601f19601f8201168201806040525081019061036d9190610707565b73ffffffffffffffffffffffffffffffffffffffff16146103c3576040517f08c379a00000000000000000000000000000000000000000000000000000000081526004016103ba9061085a565b60405180910390fd5b8060026000838152602001908152602001600020600001541461041b576040517f08c379a00000000000000000000000000000000000000000000000000000000081526004016104129061083a565b60405180910390fd5b6000600560026000848152602001908152602001600020600101544261044191906108d7565b61044b91906108a6565b9050600081111561055b576040518060400160405280838152602001600560026000868152602001908152602001600020600101544261048b91906108d7565b610495919061098f565b426104a091906108d7565b81525060026000848152602001908152602001600020600082015181600001556020820151816001015590505060008054906101000a900473ffffffffffffffffffffffffffffffffffffffff1673ffffffffffffffffffffffffffffffffffffffff166340c10f1933836040518363ffffffff1660e01b81526004016105289291906107db565b600060405180830381600087803b15801561054257600080fd5b505af1158015610556573d6000803e3d6000fd5b505050505b5050565b60008054906101000a900473ffffffffffffffffffffffffffffffffffffffff1681565b3373ffffffffffffffffffffffffffffffffffffffff16600160009054906101000a900473ffffffffffffffffffffffffffffffffffffffff1673ffffffffffffffffffffffffffffffffffffffff16636352211e836040518263ffffffff1660e01b81526004016105f5919061087a565b60206040518083038186803b15801561060d57600080fd5b505afa158015610621573d6000803e3d6000fd5b505050506040513d601f19601f820116820180604052508101906106459190610707565b73ffffffffffffffffffffffffffffffffffffffff161461069b576040517f08c379a00000000000000000000000000000000000000000000000000000000081526004016106929061085a565b60405180910390fd5b60405180604001604052808281526020014281525060026000838152602001908152602001600020600082015181600001556020820151816001015590505050565b6000815190506106ec81610a70565b92915050565b60008135905061070181610a87565b92915050565b60006020828403121561071957600080fd5b6000610727848285016106dd565b91505092915050565b60006020828403121561074257600080fd5b6000610750848285016106f2565b91505092915050565b6107628161090b565b82525050565b61077181610947565b82525050565b6107808161096b565b82525050565b6000610793601283610895565b915061079e82610a1e565b602082019050919050565b60006107b6601583610895565b91506107c182610a47565b602082019050919050565b6107d58161093d565b82525050565b60006040820190506107f06000830185610759565b6107fd60208301846107cc565b9392505050565b60006020820190506108196000830184610768565b92915050565b60006020820190506108346000830184610777565b92915050565b6000602082019050818103600083015261085381610786565b9050919050565b60006020820190508181036000830152610873816107a9565b9050919050565b600060208201905061088f60008301846107cc565b92915050565b600082825260208201905092915050565b60006108b18261093d565b91506108bc8361093d565b9250826108cc576108cb6109ef565b5b828204905092915050565b60006108e28261093d565b91506108ed8361093d565b925082821015610900576108ff6109c0565b5b828203905092915050565b60006109168261091d565b9050919050565b600073ffffffffffffffffffffffffffffffffffffffff82169050919050565b6000819050919050565b600061095282610959565b9050919050565b60006109648261091d565b9050919050565b60006109768261097d565b9050919050565b60006109888261091d565b9050919050565b600061099a8261093d565b91506109a58361093d565b9250826109b5576109b46109ef565b5b828206905092915050565b7f4e487b7100000000000000000000000000000000000000000000000000000000600052601160045260246000fd5b7f4e487b7100000000000000000000000000000000000000000000000000000000600052601260045260246000fd5b7f4e46542062656c756d206469207374616b650000000000000000000000000000600082015250565b7f42756b616e206d65727570616b616e206f776e65720000000000000000000000600082015250565b610a798161090b565b8114610a8457600080fd5b50565b610a908161093d565b8114610a9b57600080fd5b5056fea2646970667358221220009fd554192ed6a0e70968e907dc291087a814c2fa87182d15a091b2d2d8653a64736f6c63430008040033",
  "linkReferences": {},
  "deployedLinkReferences": {}
}